{
  "contractName": "Faucet",
  "abi": [
    {
      "inputs": [],
      "name": "numOfFunders",
      "outputs": [
        {
          "internalType": "uint256",
          "name": "",
          "type": "uint256"
        }
      ],
      "stateMutability": "view",
      "type": "function",
      "constant": true
    },
    {
      "stateMutability": "payable",
      "type": "receive",
      "payable": true
    },
    {
      "inputs": [],
      "name": "addFunds",
      "outputs": [],
      "stateMutability": "payable",
      "type": "function",
      "payable": true
    },
    {
      "inputs": [
        {
          "internalType": "uint256",
          "name": "withdrawAmount",
          "type": "uint256"
        }
      ],
      "name": "withdraw",
      "outputs": [],
      "stateMutability": "nonpayable",
      "type": "function"
    },
    {
      "inputs": [],
      "name": "getAllFunders",
      "outputs": [
        {
          "internalType": "address[]",
          "name": "",
          "type": "address[]"
        }
      ],
      "stateMutability": "view",
      "type": "function",
      "constant": true
    },
    {
      "inputs": [
        {
          "internalType": "uint256",
          "name": "index",
          "type": "uint256"
        }
      ],
      "name": "getFunderAtIndex",
      "outputs": [
        {
          "internalType": "address",
          "name": "",
          "type": "address"
        }
      ],
      "stateMutability": "view",
      "type": "function",
      "constant": true
    }
  ],
  "bytecode": "0x608060405234801561001057600080fd5b5061078c806100206000396000f3fe60806040526004361061004e5760003560e01c80632e1a7d4d1461005a5780636fbbb55d14610083578063a26759cb146100ae578063af7f2c9b146100b8578063c218deca146100e357610055565b3661005557005b600080fd5b34801561006657600080fd5b50610081600480360381019061007c919061044a565b610120565b005b34801561008f57600080fd5b506100986101b5565b6040516100a59190610567565b60405180910390f35b6100b66102ae565b005b3480156100c457600080fd5b506100cd6103cc565b6040516100da9190610598565b60405180910390f35b3480156100ef57600080fd5b5061010a6004803603810190610105919061044a565b6103d2565b60405161011791906105c2565b60405180910390f35b67016345785d8a000081111561016b576040517f08c379a000000000000000000000000000000000000000000000000000000000815260040161016290610660565b60405180910390fd5b3373ffffffffffffffffffffffffffffffffffffffff166108fc829081150290604051600060405180830381858888f193505050501580156101b1573d6000803e3d6000fd5b5050565b60606000805467ffffffffffffffff8111156101d4576101d3610680565b5b6040519080825280602002602001820160405280156102025781602001602082028036833780820191505090505b50905060005b6000548110156102a6576002600082815260200190815260200160002060009054906101000a900473ffffffffffffffffffffffffffffffffffffffff16828281518110610259576102586106af565b5b602002602001019073ffffffffffffffffffffffffffffffffffffffff16908173ffffffffffffffffffffffffffffffffffffffff1681525050808061029e9061070d565b915050610208565b508091505090565b6000339050600160008273ffffffffffffffffffffffffffffffffffffffff1673ffffffffffffffffffffffffffffffffffffffff16815260200190815260200160002060009054906101000a900460ff166103c95760008060008154809291906103189061070d565b91905055905060018060008473ffffffffffffffffffffffffffffffffffffffff1673ffffffffffffffffffffffffffffffffffffffff16815260200190815260200160002060006101000a81548160ff021916908315150217905550816002600083815260200190815260200160002060006101000a81548173ffffffffffffffffffffffffffffffffffffffff021916908373ffffffffffffffffffffffffffffffffffffffff160217905550505b50565b60005481565b60006002600083815260200190815260200160002060009054906101000a900473ffffffffffffffffffffffffffffffffffffffff169050919050565b600080fd5b6000819050919050565b61042781610414565b811461043257600080fd5b50565b6000813590506104448161041e565b92915050565b6000602082840312156104605761045f61040f565b5b600061046e84828501610435565b91505092915050565b600081519050919050565b600082825260208201905092915050565b6000819050602082019050919050565b600073ffffffffffffffffffffffffffffffffffffffff82169050919050565b60006104ce826104a3565b9050919050565b6104de816104c3565b82525050565b60006104f083836104d5565b60208301905092915050565b6000602082019050919050565b600061051482610477565b61051e8185610482565b935061052983610493565b8060005b8381101561055a57815161054188826104e4565b975061054c836104fc565b92505060018101905061052d565b5085935050505092915050565b600060208201905081810360008301526105818184610509565b905092915050565b61059281610414565b82525050565b60006020820190506105ad6000830184610589565b92915050565b6105bc816104c3565b82525050565b60006020820190506105d760008301846105b3565b92915050565b600082825260208201905092915050565b7f43616e6e6f74207769746864726177206d6f7265207468616e20302e3120455460008201527f4800000000000000000000000000000000000000000000000000000000000000602082015250565b600061064a6021836105dd565b9150610655826105ee565b604082019050919050565b600060208201905081810360008301526106798161063d565b9050919050565b7f4e487b7100000000000000000000000000000000000000000000000000000000600052604160045260246000fd5b7f4e487b7100000000000000000000000000000000000000000000000000000000600052603260045260246000fd5b7f4e487b7100000000000000000000000000000000000000000000000000000000600052601160045260246000fd5b600061071882610414565b91507fffffffffffffffffffffffffffffffffffffffffffffffffffffffffffffffff82141561074b5761074a6106de565b5b60018201905091905056fea26469706673582212201628a833f4582f35b9ec53e16d05a779a5d1dec87dc9aafbc8496425fc20fa7f64736f6c63430008090033",
  "immutableReferences": {},
  "source": "// SPDX-License-Identifier: MIT\r\npragma solidity >=0.4.22 <0.9.0;\r\n\r\ncontract Faucet {\r\n\r\n    uint public numOfFunders;\r\n    mapping(address => bool) private funders;\r\n    mapping(uint => address) private lutFunders;\r\n\r\n    receive() external payable {}\r\n    function addFunds() external payable {\r\n        address funder = msg.sender;\r\n\r\n        if(!funders[funder]) {\r\n            uint index = numOfFunders++;\r\n            funders[funder] = true;\r\n            lutFunders[index] = funder;\r\n        }\r\n    }\r\n\r\n    function withdraw(uint withdrawAmount) external {\r\n        require(withdrawAmount <= 100000000000000000, \"Cannot withdraw more than 0.1 ETH\");\r\n        payable(msg.sender).transfer(withdrawAmount);\r\n    }\r\n\r\n    function getAllFunders() external view returns (address[] memory) {\r\n        address[] memory _funders = new address[](numOfFunders);\r\n\r\n        for(uint i = 0; i < numOfFunders; i++) {\r\n            _funders[i] = lutFunders[i];\r\n        }\r\n\r\n        return _funders;\r\n    }\r\n\r\n    function getFunderAtIndex(uint index) external view returns(address) {\r\n        return lutFunders[index];\r\n    }\r\n\r\n    /*\r\n        pure, view --- read only call, no gas fee\r\n        view -> it indicates that the function will not alter the storage state in any way\r\n        pure -> even more strict, indicating thath it won't even read the storage state\r\n    */\r\n\r\n    /*\r\n        Transaction (can generate state changes) and require gas fee\r\n    */\r\n\r\n    // public can be accessed by internal function, external cannot\r\n}\r\n\r\n// const instance = await Faucet.deployed()\r\n// instance.addFunds({value: \"2000000000000000000\"})\r\n\r\n// web3.eth.sendTransaction({from: address, to: address/smart_contract, data: hashed_keccak256_function (4 bytes), value: value_in_wei})\r\n\r\n// instance.addFunds({value: \"2000000000000000000\", from: accounts[0]})\r\n// instance.funders(0) --> mandatory param, just like index array",
  "sourcePath": "C:\\Users\\User\\Desktop\\prj\\blockchain\\faucet\\contracts\\Faucet.sol",
  "compiler": {
    "name": "solc",
    "version": "0.8.9+commit.e5eed63a.Emscripten.clang"
  },
  "schemaVersion": "3.4.3",
  "updatedAt": "2022-01-11T10:58:33.577Z",
  "networkType": "ethereum",
  "devdoc": {
    "kind": "dev",
    "methods": {},
    "version": 1
  },
  "userdoc": {
    "kind": "user",
    "methods": {},
    "version": 1
  }
}