{
  "contractName": "Storage",
  "abi": [
    {
      "inputs": [],
      "stateMutability": "nonpayable",
      "type": "constructor"
    },
    {
      "inputs": [],
      "name": "a",
      "outputs": [
        {
          "internalType": "uint8",
          "name": "",
          "type": "uint8"
        }
      ],
      "stateMutability": "view",
      "type": "function"
    },
    {
      "inputs": [
        {
          "internalType": "uint256",
          "name": "",
          "type": "uint256"
        }
      ],
      "name": "aa",
      "outputs": [
        {
          "internalType": "uint256",
          "name": "",
          "type": "uint256"
        }
      ],
      "stateMutability": "view",
      "type": "function"
    },
    {
      "inputs": [],
      "name": "b",
      "outputs": [
        {
          "internalType": "uint16",
          "name": "",
          "type": "uint16"
        }
      ],
      "stateMutability": "view",
      "type": "function"
    },
    {
      "inputs": [
        {
          "internalType": "address",
          "name": "",
          "type": "address"
        }
      ],
      "name": "bb",
      "outputs": [
        {
          "internalType": "uint256",
          "name": "",
          "type": "uint256"
        }
      ],
      "stateMutability": "view",
      "type": "function"
    },
    {
      "inputs": [],
      "name": "c",
      "outputs": [
        {
          "internalType": "address",
          "name": "",
          "type": "address"
        }
      ],
      "stateMutability": "view",
      "type": "function"
    },
    {
      "inputs": [],
      "name": "e",
      "outputs": [
        {
          "internalType": "uint64",
          "name": "",
          "type": "uint64"
        }
      ],
      "stateMutability": "view",
      "type": "function"
    },
    {
      "inputs": [],
      "name": "f",
      "outputs": [
        {
          "internalType": "uint256",
          "name": "",
          "type": "uint256"
        }
      ],
      "stateMutability": "view",
      "type": "function"
    },
    {
      "inputs": [],
      "name": "g",
      "outputs": [
        {
          "internalType": "uint8",
          "name": "",
          "type": "uint8"
        }
      ],
      "stateMutability": "view",
      "type": "function"
    },
    {
      "inputs": [],
      "name": "h",
      "outputs": [
        {
          "internalType": "uint256",
          "name": "",
          "type": "uint256"
        }
      ],
      "stateMutability": "view",
      "type": "function"
    }
  ],
  "bytecode": "0x60806040526007600260006101000a81548160ff021916908360ff160217905550600a600260016101000a81548161ffff021916908361ffff16021790555073648faad551af1da6d6556f0e3c41b37b6055bad1600260036101000a81548173ffffffffffffffffffffffffffffffffffffffff021916908373ffffffffffffffffffffffffffffffffffffffff1602179055506001600260176101000a81548160ff021916908315150217905550600f600260186101000a81548167ffffffffffffffff021916908367ffffffffffffffff16021790555060c86003556028600460006101000a81548160ff021916908360ff16021790555061031560055534801561010b57600080fd5b5060046000806002815260200190815260200160002081905550600a600080600381526020019081526020016000208190555060646001600073f8929048d74164582e5fa0897fc654cbf0c096c673ffffffffffffffffffffffffffffffffffffffff1673ffffffffffffffffffffffffffffffffffffffff168152602001908152602001600020819055506104aa806101a66000396000f3fe608060405234801561001057600080fd5b50600436106100935760003560e01c8063b8c9d36511610066578063b8c9d36514610122578063c3da42b814610140578063e1d9bbbd1461015e578063e2179b8e1461018e578063ffae15ba146101ac57610093565b80630dbe671f1461009857806326121ff0146100b65780634df7e3d0146100d45780637323febe146100f2575b600080fd5b6100a06101ca565b6040516100ad919061029c565b60405180910390f35b6100be6101dd565b6040516100cb91906102d0565b60405180910390f35b6100dc6101e3565b6040516100e99190610308565b60405180910390f35b61010c60048036038101906101079190610354565b6101f7565b60405161011991906102d0565b60405180910390f35b61012a61020f565b60405161013791906102d0565b60405180910390f35b610148610215565b60405161015591906103c2565b60405180910390f35b61017860048036038101906101739190610409565b61023b565b60405161018591906102d0565b60405180910390f35b610196610253565b6040516101a3919061029c565b60405180910390f35b6101b4610266565b6040516101c19190610459565b60405180910390f35b600260009054906101000a900460ff1681565b60035481565b600260019054906101000a900461ffff1681565b60006020528060005260406000206000915090505481565b60055481565b600260039054906101000a900473ffffffffffffffffffffffffffffffffffffffff1681565b60016020528060005260406000206000915090505481565b600460009054906101000a900460ff1681565b600260189054906101000a900467ffffffffffffffff1681565b600060ff82169050919050565b61029681610280565b82525050565b60006020820190506102b1600083018461028d565b92915050565b6000819050919050565b6102ca816102b7565b82525050565b60006020820190506102e560008301846102c1565b92915050565b600061ffff82169050919050565b610302816102eb565b82525050565b600060208201905061031d60008301846102f9565b92915050565b600080fd5b610331816102b7565b811461033c57600080fd5b50565b60008135905061034e81610328565b92915050565b60006020828403121561036a57610369610323565b5b60006103788482850161033f565b91505092915050565b600073ffffffffffffffffffffffffffffffffffffffff82169050919050565b60006103ac82610381565b9050919050565b6103bc816103a1565b82525050565b60006020820190506103d760008301846103b3565b92915050565b6103e6816103a1565b81146103f157600080fd5b50565b600081359050610403816103dd565b92915050565b60006020828403121561041f5761041e610323565b5b600061042d848285016103f4565b91505092915050565b600067ffffffffffffffff82169050919050565b61045381610436565b82525050565b600060208201905061046e600083018461044a565b9291505056fea26469706673582212208911607c5e6cd7b8bb9eee4116530235a010b916601f4ecc4f88254fac33db8c64736f6c63430008090033",
  "immutableReferences": {},
  "source": "// SPDX-License-Identifier: MIT\r\npragma solidity >=0.4.22 <0.9.0;\r\n\r\ncontract Storage {\r\n    mapping(uint256 => uint256) public aa; // slot 0\r\n    mapping(address => uint256) public bb; // slot 1\r\n\r\n    // keccak256(key . slot)\r\n\r\n    uint8 public a = 7; // 1 byte\r\n    uint16 public b = 10; // 2bytes\r\n    address public c = 0x648FaaD551af1DA6d6556f0E3C41B37B6055bAD1; // 20bytes\r\n    bool d = true; // 1 byte\r\n    uint64 public e = 15; // 8bytes\r\n    // 32 bytes, all values will be stored in slot 2\r\n\r\n    // 0x 0f 01 648faad551af1da6d6556f0e3c41b37b6055bad1 000a 07\r\n\r\n    uint256 public f = 200; // 32bytes -> slot 3\r\n\r\n    uint8 public g = 40; // 1byte -> slot 4\r\n\r\n    uint256 public h = 789; // 32bytes -> slot 5\r\n\r\n    constructor() {\r\n        aa[2] = 4;\r\n        aa[3] = 10;\r\n        bb[0xf8929048D74164582E5FA0897fC654CbF0c096C6] = 100;\r\n    }\r\n}\r\n\r\n// how to access storage\r\n// web3.eth.getStorageAt(contract_address, slot)\r\n\r\n// how to access mapping\r\n// slot use keccak256\r\n// 0x 16byte_of_key 16byte_of_slot\r\n// 0x000000000000000000000000f8929048D74164582E5FA0897fC654CbF0c096C60000000000000000000000000000000000000000000000000000000000000001\r\n",
  "sourcePath": "C:\\Users\\User\\Desktop\\prj\\blockchain\\faucet\\contracts\\Storage.sol",
  "compiler": {
    "name": "solc",
    "version": "0.8.9+commit.e5eed63a.Emscripten.clang"
  },
  "schemaVersion": "3.4.3",
  "updatedAt": "2022-01-11T09:55:29.924Z",
  "devdoc": {
    "kind": "dev",
    "methods": {},
    "version": 1
  },
  "userdoc": {
    "kind": "user",
    "methods": {},
    "version": 1
  }
}